{
  "_format": "hh-sol-artifact-1",
  "contractName": "Storage",
  "sourceName": "contracts/1_Storage.sol",
  "abi": [
    {
      "inputs": [
        {
          "internalType": "uint256",
          "name": "",
          "type": "uint256"
        }
      ],
      "name": "data",
      "outputs": [
        {
          "internalType": "uint256",
          "name": "timeStamps",
          "type": "uint256"
        },
        {
          "internalType": "string",
          "name": "data",
          "type": "string"
        }
      ],
      "stateMutability": "view",
      "type": "function"
    },
    {
      "inputs": [],
      "name": "getArr",
      "outputs": [
        {
          "components": [
            {
              "internalType": "uint256",
              "name": "timeStamps",
              "type": "uint256"
            },
            {
              "internalType": "string",
              "name": "data",
              "type": "string"
            }
          ],
          "internalType": "struct Storage.DataStorage[]",
          "name": "",
          "type": "tuple[]"
        }
      ],
      "stateMutability": "view",
      "type": "function"
    },
    {
      "inputs": [
        {
          "internalType": "string",
          "name": "iotData",
          "type": "string"
        }
      ],
      "name": "store",
      "outputs": [
        {
          "internalType": "bool",
          "name": "",
          "type": "bool"
        }
      ],
      "stateMutability": "nonpayable",
      "type": "function"
    },
    {
      "inputs": [],
      "name": "timestamp",
      "outputs": [
        {
          "internalType": "uint256",
          "name": "",
          "type": "uint256"
        }
      ],
      "stateMutability": "view",
      "type": "function"
    },
    {
      "inputs": [],
      "name": "transfer",
      "outputs": [
        {
          "internalType": "bool",
          "name": "",
          "type": "bool"
        }
      ],
      "stateMutability": "payable",
      "type": "function"
    }
  ],
  "bytecode": "0x6080604052604051806040016040528073e4b3717a2b902327bce7473f68a996ea0860397f73ffffffffffffffffffffffffffffffffffffffff1673ffffffffffffffffffffffffffffffffffffffff16815260200173b9fe0ff0fc8cb73be7a887e8319ba7ac7dd8ecec73ffffffffffffffffffffffffffffffffffffffff1673ffffffffffffffffffffffffffffffffffffffff1681525060019060026100a99291906100bc565b503480156100b657600080fd5b50610163565b828054828255906000526020600020908101928215610135579160200282015b828111156101345782518260006101000a81548173ffffffffffffffffffffffffffffffffffffffff021916908373ffffffffffffffffffffffffffffffffffffffff160217905550916020019190600101906100dc565b5b5090506101429190610146565b5090565b5b8082111561015f576000816000905550600101610147565b5090565b610d4d806101726000396000f3fe60806040526004361061004a5760003560e01c8063131a06801461004f5780638a4068dd1461008c578063b80777ea146100aa578063f0ba8440146100d5578063fb8cbced14610113575b600080fd5b34801561005b57600080fd5b50610076600480360381019061007191906106d5565b61013e565b6040516100839190610739565b60405180910390f35b6100946101b4565b6040516100a19190610739565b60405180910390f35b3480156100b657600080fd5b506100bf6103be565b6040516100cc919061076d565b60405180910390f35b3480156100e157600080fd5b506100fc60048036038101906100f791906107b4565b6103c4565b60405161010a929190610860565b60405180910390f35b34801561011f57600080fd5b50610128610480565b60405161013591906109e8565b60405180910390f35b6000426002819055506000604051806040016040528060025481526020018481525090806001815401808255809150506001900390600052602060002090600202016000909190919091506000820151816000015560208201518160010190816101a89190610c16565b50505060019050919050565b600060016000815481106101cb576101ca610ce8565b5b9060005260206000200160009054906101000a900473ffffffffffffffffffffffffffffffffffffffff1673ffffffffffffffffffffffffffffffffffffffff163373ffffffffffffffffffffffffffffffffffffffff16036102b6576001808154811061023c5761023b610ce8565b5b9060005260206000200160009054906101000a900473ffffffffffffffffffffffffffffffffffffffff1673ffffffffffffffffffffffffffffffffffffffff166108fc349081150290604051600060405180830381858888f193505050501580156102ac573d6000803e3d6000fd5b50600190506103bb565b600180815481106102ca576102c9610ce8565b5b9060005260206000200160009054906101000a900473ffffffffffffffffffffffffffffffffffffffff1673ffffffffffffffffffffffffffffffffffffffff163373ffffffffffffffffffffffffffffffffffffffff16036103b657600160008154811061033c5761033b610ce8565b5b9060005260206000200160009054906101000a900473ffffffffffffffffffffffffffffffffffffffff1673ffffffffffffffffffffffffffffffffffffffff166108fc349081150290604051600060405180830381858888f193505050501580156103ac573d6000803e3d6000fd5b50600190506103bb565b600090505b90565b60025481565b600081815481106103d457600080fd5b90600052602060002090600202016000915090508060000154908060010180546103fd90610a39565b80601f016020809104026020016040519081016040528092919081815260200182805461042990610a39565b80156104765780601f1061044b57610100808354040283529160200191610476565b820191906000526020600020905b81548152906001019060200180831161045957829003601f168201915b5050505050905082565b60606000805480602002602001604051908101604052809291908181526020016000905b828210156105725783829060005260206000209060020201604051806040016040529081600082015481526020016001820180546104e190610a39565b80601f016020809104026020016040519081016040528092919081815260200182805461050d90610a39565b801561055a5780601f1061052f5761010080835404028352916020019161055a565b820191906000526020600020905b81548152906001019060200180831161053d57829003601f168201915b505050505081525050815260200190600101906104a4565b50505050905090565b6000604051905090565b600080fd5b600080fd5b600080fd5b600080fd5b6000601f19601f8301169050919050565b7f4e487b7100000000000000000000000000000000000000000000000000000000600052604160045260246000fd5b6105e282610599565b810181811067ffffffffffffffff82111715610601576106006105aa565b5b80604052505050565b600061061461057b565b905061062082826105d9565b919050565b600067ffffffffffffffff8211156106405761063f6105aa565b5b61064982610599565b9050602081019050919050565b82818337600083830152505050565b600061067861067384610625565b61060a565b90508281526020810184848401111561069457610693610594565b5b61069f848285610656565b509392505050565b600082601f8301126106bc576106bb61058f565b5b81356106cc848260208601610665565b91505092915050565b6000602082840312156106eb576106ea610585565b5b600082013567ffffffffffffffff8111156107095761070861058a565b5b610715848285016106a7565b91505092915050565b60008115159050919050565b6107338161071e565b82525050565b600060208201905061074e600083018461072a565b92915050565b6000819050919050565b61076781610754565b82525050565b6000602082019050610782600083018461075e565b92915050565b61079181610754565b811461079c57600080fd5b50565b6000813590506107ae81610788565b92915050565b6000602082840312156107ca576107c9610585565b5b60006107d88482850161079f565b91505092915050565b600081519050919050565b600082825260208201905092915050565b60005b8381101561081b578082015181840152602081019050610800565b60008484015250505050565b6000610832826107e1565b61083c81856107ec565b935061084c8185602086016107fd565b61085581610599565b840191505092915050565b6000604082019050610875600083018561075e565b81810360208301526108878184610827565b90509392505050565b600081519050919050565b600082825260208201905092915050565b6000819050602082019050919050565b6108c581610754565b82525050565b600082825260208201905092915050565b60006108e7826107e1565b6108f181856108cb565b93506109018185602086016107fd565b61090a81610599565b840191505092915050565b600060408301600083015161092d60008601826108bc565b506020830151848203602086015261094582826108dc565b9150508091505092915050565b600061095e8383610915565b905092915050565b6000602082019050919050565b600061097e82610890565b610988818561089b565b93508360208202850161099a856108ac565b8060005b858110156109d657848403895281516109b78582610952565b94506109c283610966565b925060208a0199505060018101905061099e565b50829750879550505050505092915050565b60006020820190508181036000830152610a028184610973565b905092915050565b7f4e487b7100000000000000000000000000000000000000000000000000000000600052602260045260246000fd5b60006002820490506001821680610a5157607f821691505b602082108103610a6457610a63610a0a565b5b50919050565b60008190508160005260206000209050919050565b60006020601f8301049050919050565b600082821b905092915050565b600060088302610acc7fffffffffffffffffffffffffffffffffffffffffffffffffffffffffffffffff82610a8f565b610ad68683610a8f565b95508019841693508086168417925050509392505050565b6000819050919050565b6000610b13610b0e610b0984610754565b610aee565b610754565b9050919050565b6000819050919050565b610b2d83610af8565b610b41610b3982610b1a565b848454610a9c565b825550505050565b600090565b610b56610b49565b610b61818484610b24565b505050565b5b81811015610b8557610b7a600082610b4e565b600181019050610b67565b5050565b601f821115610bca57610b9b81610a6a565b610ba484610a7f565b81016020851015610bb3578190505b610bc7610bbf85610a7f565b830182610b66565b50505b505050565b600082821c905092915050565b6000610bed60001984600802610bcf565b1980831691505092915050565b6000610c068383610bdc565b9150826002028217905092915050565b610c1f826107e1565b67ffffffffffffffff811115610c3857610c376105aa565b5b610c428254610a39565b610c4d828285610b89565b600060209050601f831160018114610c805760008415610c6e578287015190505b610c788582610bfa565b865550610ce0565b601f198416610c8e86610a6a565b60005b82811015610cb657848901518255600182019150602085019450602081019050610c91565b86831015610cd35784890151610ccf601f891682610bdc565b8355505b6001600288020188555050505b505050505050565b7f4e487b7100000000000000000000000000000000000000000000000000000000600052603260045260246000fdfea264697066735822122014f792b25f579e547b5f338bf331f9bbdf62e0b46dfc2e42b45ae916283954ed64736f6c63430008120033",
  "linkReferences": {},
  "deployedLinkReferences": {}
}