{
  "_format": "hh-sol-artifact-1",
  "contractName": "StorageString",
  "sourceName": "contracts/2_Storage.sol",
  "abi": [
    {
      "inputs": [
        {
          "internalType": "uint256",
          "name": "",
          "type": "uint256"
        }
      ],
      "name": "data",
      "outputs": [
        {
          "internalType": "string",
          "name": "",
          "type": "string"
        }
      ],
      "stateMutability": "view",
      "type": "function"
    },
    {
      "inputs": [],
      "name": "getArr",
      "outputs": [
        {
          "internalType": "string[]",
          "name": "",
          "type": "string[]"
        }
      ],
      "stateMutability": "view",
      "type": "function"
    },
    {
      "inputs": [
        {
          "internalType": "string",
          "name": "iotData",
          "type": "string"
        }
      ],
      "name": "store",
      "outputs": [
        {
          "internalType": "bool",
          "name": "",
          "type": "bool"
        }
      ],
      "stateMutability": "nonpayable",
      "type": "function"
    },
    {
      "inputs": [],
      "name": "transfer",
      "outputs": [
        {
          "internalType": "bool",
          "name": "",
          "type": "bool"
        }
      ],
      "stateMutability": "payable",
      "type": "function"
    }
  ],
  "bytecode": "0x6080604052604051806040016040528073e4b3717a2b902327bce7473f68a996ea0860397f73ffffffffffffffffffffffffffffffffffffffff1673ffffffffffffffffffffffffffffffffffffffff16815260200173b9fe0ff0fc8cb73be7a887e8319ba7ac7dd8ecec73ffffffffffffffffffffffffffffffffffffffff1673ffffffffffffffffffffffffffffffffffffffff1681525060019060026100a99291906100bc565b503480156100b657600080fd5b50610163565b828054828255906000526020600020908101928215610135579160200282015b828111156101345782518260006101000a81548173ffffffffffffffffffffffffffffffffffffffff021916908373ffffffffffffffffffffffffffffffffffffffff160217905550916020019190600101906100dc565b5b5090506101429190610146565b5090565b5b8082111561015f576000816000905550600101610147565b5090565b610c23806101726000396000f3fe60806040526004361061003f5760003560e01c8063131a0680146100445780638a4068dd14610081578063f0ba84401461009f578063fb8cbced146100dc575b600080fd5b34801561005057600080fd5b5061006b6004803603810190610066919061062f565b610107565b6040516100789190610693565b60405180910390f35b610089610146565b6040516100969190610693565b60405180910390f35b3480156100ab57600080fd5b506100c660048036038101906100c191906106e4565b610350565b6040516100d39190610790565b60405180910390f35b3480156100e857600080fd5b506100f16103fc565b6040516100fe91906108be565b60405180910390f35b6000808290806001815401808255809150506001900390600052602060002001600090919091909150908161013c9190610aec565b5060019050919050565b6000600160008154811061015d5761015c610bbe565b5b9060005260206000200160009054906101000a900473ffffffffffffffffffffffffffffffffffffffff1673ffffffffffffffffffffffffffffffffffffffff163373ffffffffffffffffffffffffffffffffffffffff160361024857600180815481106101ce576101cd610bbe565b5b9060005260206000200160009054906101000a900473ffffffffffffffffffffffffffffffffffffffff1673ffffffffffffffffffffffffffffffffffffffff166108fc349081150290604051600060405180830381858888f1935050505015801561023e573d6000803e3d6000fd5b506001905061034d565b6001808154811061025c5761025b610bbe565b5b9060005260206000200160009054906101000a900473ffffffffffffffffffffffffffffffffffffffff1673ffffffffffffffffffffffffffffffffffffffff163373ffffffffffffffffffffffffffffffffffffffff16036103485760016000815481106102ce576102cd610bbe565b5b9060005260206000200160009054906101000a900473ffffffffffffffffffffffffffffffffffffffff1673ffffffffffffffffffffffffffffffffffffffff166108fc349081150290604051600060405180830381858888f1935050505015801561033e573d6000803e3d6000fd5b506001905061034d565b600090505b90565b6000818154811061036057600080fd5b90600052602060002001600091509050805461037b9061090f565b80601f01602080910402602001604051908101604052809291908181526020018280546103a79061090f565b80156103f45780601f106103c9576101008083540402835291602001916103f4565b820191906000526020600020905b8154815290600101906020018083116103d757829003601f168201915b505050505081565b60606000805480602002602001604051908101604052809291908181526020016000905b828210156104cc57838290600052602060002001805461043f9061090f565b80601f016020809104026020016040519081016040528092919081815260200182805461046b9061090f565b80156104b85780601f1061048d576101008083540402835291602001916104b8565b820191906000526020600020905b81548152906001019060200180831161049b57829003601f168201915b505050505081526020019060010190610420565b50505050905090565b6000604051905090565b600080fd5b600080fd5b600080fd5b600080fd5b6000601f19601f8301169050919050565b7f4e487b7100000000000000000000000000000000000000000000000000000000600052604160045260246000fd5b61053c826104f3565b810181811067ffffffffffffffff8211171561055b5761055a610504565b5b80604052505050565b600061056e6104d5565b905061057a8282610533565b919050565b600067ffffffffffffffff82111561059a57610599610504565b5b6105a3826104f3565b9050602081019050919050565b82818337600083830152505050565b60006105d26105cd8461057f565b610564565b9050828152602081018484840111156105ee576105ed6104ee565b5b6105f98482856105b0565b509392505050565b600082601f830112610616576106156104e9565b5b81356106268482602086016105bf565b91505092915050565b600060208284031215610645576106446104df565b5b600082013567ffffffffffffffff811115610663576106626104e4565b5b61066f84828501610601565b91505092915050565b60008115159050919050565b61068d81610678565b82525050565b60006020820190506106a86000830184610684565b92915050565b6000819050919050565b6106c1816106ae565b81146106cc57600080fd5b50565b6000813590506106de816106b8565b92915050565b6000602082840312156106fa576106f96104df565b5b6000610708848285016106cf565b91505092915050565b600081519050919050565b600082825260208201905092915050565b60005b8381101561074b578082015181840152602081019050610730565b60008484015250505050565b600061076282610711565b61076c818561071c565b935061077c81856020860161072d565b610785816104f3565b840191505092915050565b600060208201905081810360008301526107aa8184610757565b905092915050565b600081519050919050565b600082825260208201905092915050565b6000819050602082019050919050565b600082825260208201905092915050565b60006107fa82610711565b61080481856107de565b935061081481856020860161072d565b61081d816104f3565b840191505092915050565b600061083483836107ef565b905092915050565b6000602082019050919050565b6000610854826107b2565b61085e81856107bd565b935083602082028501610870856107ce565b8060005b858110156108ac578484038952815161088d8582610828565b94506108988361083c565b925060208a01995050600181019050610874565b50829750879550505050505092915050565b600060208201905081810360008301526108d88184610849565b905092915050565b7f4e487b7100000000000000000000000000000000000000000000000000000000600052602260045260246000fd5b6000600282049050600182168061092757607f821691505b60208210810361093a576109396108e0565b5b50919050565b60008190508160005260206000209050919050565b60006020601f8301049050919050565b600082821b905092915050565b6000600883026109a27fffffffffffffffffffffffffffffffffffffffffffffffffffffffffffffffff82610965565b6109ac8683610965565b95508019841693508086168417925050509392505050565b6000819050919050565b60006109e96109e46109df846106ae565b6109c4565b6106ae565b9050919050565b6000819050919050565b610a03836109ce565b610a17610a0f826109f0565b848454610972565b825550505050565b600090565b610a2c610a1f565b610a378184846109fa565b505050565b5b81811015610a5b57610a50600082610a24565b600181019050610a3d565b5050565b601f821115610aa057610a7181610940565b610a7a84610955565b81016020851015610a89578190505b610a9d610a9585610955565b830182610a3c565b50505b505050565b600082821c905092915050565b6000610ac360001984600802610aa5565b1980831691505092915050565b6000610adc8383610ab2565b9150826002028217905092915050565b610af582610711565b67ffffffffffffffff811115610b0e57610b0d610504565b5b610b18825461090f565b610b23828285610a5f565b600060209050601f831160018114610b565760008415610b44578287015190505b610b4e8582610ad0565b865550610bb6565b601f198416610b6486610940565b60005b82811015610b8c57848901518255600182019150602085019450602081019050610b67565b86831015610ba95784890151610ba5601f891682610ab2565b8355505b6001600288020188555050505b505050505050565b7f4e487b7100000000000000000000000000000000000000000000000000000000600052603260045260246000fdfea2646970667358221220bc65878a27162b3ddc48fb3840dd9e039bf0bc1074184c4ae21799cb1e58967e64736f6c63430008120033",
  "linkReferences": {},
  "deployedLinkReferences": {}
}